{
  "contractName": "LinkableRingSignature",
  "abi": [
    {
      "constant": false,
      "inputs": [
        {
          "name": "at",
          "type": "uint256"
        },
        {
          "name": "dt",
          "type": "uint256"
        },
        {
          "name": "m",
          "type": "uint256"
        },
        {
          "name": "p",
          "type": "uint256"
        },
        {
          "name": "s",
          "type": "uint256"
        },
        {
          "name": "i",
          "type": "uint256"
        }
      ],
      "name": "helper",
      "outputs": [
        {
          "name": "",
          "type": "bool"
        }
      ],
      "payable": false,
      "stateMutability": "nonpayable",
      "type": "function"
    },
    {
      "constant": true,
      "inputs": [
        {
          "name": "message",
          "type": "uint256"
        },
        {
          "name": "y",
          "type": "uint256[]"
        },
        {
          "name": "c_0",
          "type": "uint256"
        },
        {
          "name": "s",
          "type": "uint256[]"
        },
        {
          "name": "link",
          "type": "uint256[2]"
        }
      ],
      "name": "verifyRingSignature",
      "outputs": [
        {
          "name": "",
          "type": "bool"
        }
      ],
      "payable": false,
      "stateMutability": "view",
      "type": "function"
    }
  ],
  "bytecode": "0x612ed9610030600b82828239805160001a6073146000811461002057610022565bfe5b5030600052607381538281f3007300000000000000000000000000000000000000003014606060405260043610610063576000357c0100000000000000000000000000000000000000000000000000000000900463ffffffff1680633a1f9a3014610068578063622c9dd51461014d575b600080fd5b6101336004808035906020019091908035906020019082018035906020019080806020026020016040519081016040528093929190818152602001838360200280828437820191505050505050919080359060200190919080359060200190820180359060200190808060200260200160405190810160405280939291908181526020018383602002808284378201915050505050509190806040019060028060200260405190810160405280929190826002602002808284378201915050505050919050506101b5565b604051808215151515815260200191505060405180910390f35b811561015857600080fd5b61019b600480803590602001909190803590602001909190803590602001909190803590602001909190803590602001909190803590602001909190505061042e565b604051808215151515815260200191505060405180910390f35b60006101bf612da2565b6101c7612dc9565b6101cf612da2565b60006101d9612da2565b6101e1612da2565b6101e9612da2565b7f79be667ef9dcbbac55a06295ce870b07029bfcdb2dce28d959f2815b16f8179887600060028110151561021957fe5b6020020181815250507f483ada7726a3c4655da4fbfc0e1108a8fd17b448a68554199c47d08ffb10d4b887600160028110151561025257fe5b60200201818152505060028c5181151561026857fe5b046040518059106102765750595b908082528060200260200182016040525095508a86600081518110151561029957fe5b90602001906020020181815250506102b08c610468565b9450600093505b60028c518115156102c457fe5b04841015610419578b600285028151811015156102dd57fe5b906020019060200201518360006002811015156102f657fe5b6020020181815250508b6001600286020181518110151561031357fe5b9060200190602002015183600160028110151561032c57fe5b60200201818152505061036f8a8581518110151561034657fe5b9060200190602002015188888781518110151561035f57fe5b90602001906020020151866104e9565b91506103ab8a8581518110151561038257fe5b9060200190602002015186888781518110151561039b57fe5b906020019060200201518c6104e9565b9050600160028d518115156103bc57fe5b04038410156103f6576103d28c8a8f85856105ae565b86600186018151811015156103e357fe5b906020019060200201818152505061040c565b6104038c8a8f85856105ae565b8b14975061041e565b83806001019450506102b7565b600097505b5050505050505095945050505050565b60006001840361045b61044288888861069a565b890261045560028660018903038961069a565b8761069a565b1490509695505050505050565b610470612da2565b610478612da2565b61048961048484610759565b6107a9565b905080600060028110151561049a57fe5b60200201518260006002811015156104ae57fe5b6020020181815250508060016002811015156104c657fe5b60200201518260016002811015156104da57fe5b60200201818152505050919050565b6104f1612da2565b6104f9612ddd565b610501612da2565b61051d61050e888861095e565b610518878761095e565b6111f0565b9150610549827ffffffffffffffffffffffffffffffffffffffffffffffffffffffffefffffc2f611716565b81600060038110151561055857fe5b602002015181600060028110151561056c57fe5b60200201818152505081600160038110151561058457fe5b602002015181600160028110151561059857fe5b6020020181815250508092505050949350505050565b6000858585858560405180868051906020019060200280838360005b838110156105e55780820151818401526020810190506105ca565b5050505090500185600260200280838360005b838110156106135780820151818401526020810190506105f8565b5050505090500184815260200183600260200280838360005b8381101561064757808201518184015260208101905061062c565b5050505090500182600260200280838360005b8381101561067557808201518184015260208101905061065a565b5050505090500195505050505050604051809103902060019004905095945050505050565b60008060008514156106af5760009150610751565b60008414156106c15760019150610751565b60008314156106cf57600080fd5b600191507f800000000000000000000000000000000000000000000000000000000000000090508090505b801561075057828185161515860a84848509099150826002820485161515860a84848509099150826004820485161515860a84848509099150826008820485161515860a848485090991506010810490506106fa565b5b509392505050565b60008160405180828051906020019060200280838360005b8381101561078c578082015181840152602081019050610771565b505050509050019150506040518091039020600190049050919050565b6107b1612da2565b6000806000806107bf612da2565b6001870396506000945060009350600092505b83151561091f576001870196507ffffffffffffffffffffffffffffffffffffffffffffffffffffffffefffffc2f60077ffffffffffffffffffffffffffffffffffffffffffffffffffffffffefffffc2f80151561082c57fe5b897ffffffffffffffffffffffffffffffffffffffffffffffffffffffffefffffc2f80151561085757fe5b8b8c09090181151561086557fe5b069150610892827ffffffffffffffffffffffffffffffffffffffffffffffffffffffffefffffc2f6117e3565b94506000851415156109065760007ffffffffffffffffffffffffffffffffffffffffffffffffffffffffefffffc2f838115156108cb57fe5b067ffffffffffffffffffffffffffffffffffffffffffffffffffffffffefffffc2f8015156108f657fe5b87880903141561090557600193505b5b600183019250606483111561091a5761091f565b6107d2565b8681600060028110151561092f57fe5b6020020181815250508481600160028110151561094857fe5b6020020181815250508095505050505050919050565b610966612ddd565b6000806000610973612e05565b61097b612ddd565b610983612e34565b60008060007ffffffffffffffffffffffffffffffffffffffffffffffffffffffffefffffc2f985060008c14156109b9576111e1565b6000604051985061020089016040525b8c15610a025760018d16156109f15760208d06905080888a015360206010821102818e03019c505b60028d049c506001880197506109c9565b508797506060604051908101604052808c6000600281101515610a2157fe5b602002015181526020018c6001600281101515610a3a57fe5b602002015181526020016001815250866000600881101515610a5857fe5b6020020181905250610a7c866000600881101515610a7257fe5b6020020151611a37565b9450610a88858c611bef565b866001600881101515610a9757fe5b6020020181905250610abc85876001600881101515610ab257fe5b60200201516111f0565b866002600881101515610acb57fe5b6020020181905250610af085876002600881101515610ae657fe5b60200201516111f0565b866003600881101515610aff57fe5b6020020181905250610b2485876003600881101515610b1a57fe5b60200201516111f0565b866004600881101515610b3357fe5b6020020181905250610b5885876004600881101515610b4e57fe5b60200201516111f0565b866005600881101515610b6757fe5b6020020181905250610b8c85876005600881101515610b8257fe5b60200201516111f0565b866006600881101515610b9b57fe5b6020020181905250610bc085876006600881101515610bb657fe5b60200201516111f0565b866007600881101515610bcf57fe5b6020020181905250856001600881101515610be657fe5b60200201516002600381101515610bf957fe5b6020020151846000601081101515610c0d57fe5b60200201818152505088801515610c2057fe5b846000601081101515610c2f57fe5b6020020151876002600881101515610c4357fe5b60200201516002600381101515610c5657fe5b602002015109846001601081101515610c6b57fe5b60200201818152505088801515610c7e57fe5b846001601081101515610c8d57fe5b6020020151876003600881101515610ca157fe5b60200201516002600381101515610cb457fe5b602002015109846002601081101515610cc957fe5b60200201818152505088801515610cdc57fe5b846002601081101515610ceb57fe5b6020020151876004600881101515610cff57fe5b60200201516002600381101515610d1257fe5b602002015109846003601081101515610d2757fe5b60200201818152505088801515610d3a57fe5b846003601081101515610d4957fe5b6020020151876005600881101515610d5d57fe5b60200201516002600381101515610d7057fe5b602002015109846004601081101515610d8557fe5b60200201818152505088801515610d9857fe5b846004601081101515610da757fe5b6020020151876006600881101515610dbb57fe5b60200201516002600381101515610dce57fe5b602002015109846005601081101515610de357fe5b60200201818152505088801515610df657fe5b846005601081101515610e0557fe5b6020020151876007600881101515610e1957fe5b60200201516002600381101515610e2c57fe5b602002015109846006601081101515610e4157fe5b602002018181525050610e67846006601081101515610e5c57fe5b60200201518a6120b1565b846007601081101515610e7657fe5b602002018181525050836007601081101515610e8e57fe5b6020020151846008601081101515610ea257fe5b60200201818152505088801515610eb557fe5b846008601081101515610ec457fe5b6020020151856005601081101515610ed857fe5b60200201510984600f601081101515610eed57fe5b602002018181525050600692505b600283101515610fc25788801515610f0f57fe5b846008601081101515610f1e57fe5b60200201518760018601600881101515610f3457fe5b60200201516002600381101515610f4757fe5b602002015109846008601081101515610f5c57fe5b60200201818152505088801515610f6f57fe5b846008601081101515610f7e57fe5b60200201518560028603601081101515610f9457fe5b6020020151098484600801601081101515610fab57fe5b602002018181525050828060019003935050610efb565b88801515610fcc57fe5b846008601081101515610fdb57fe5b6020020151876002600881101515610fef57fe5b6020020151600260038110151561100257fe5b60200201510984600960108110151561101757fe5b602002018181525050600092505b60078310156110a75761109a866001850160088110151561104257fe5b6020020151856009860160108110151561105857fe5b60200201518b80151561106757fe5b876009880160108110151561107857fe5b6020020151886009890160108110151561108e57fe5b6020020151098c61215d565b8280600101935050611025565b5b60008711156111e0578680600190039750508688015160001a91506110cc8a6121f9565b601082111561115657600282601f038115156110e457fe5b0490506111518a6040805190810160405280898560088110151561110457fe5b6020020151600060038110151561111757fe5b60200201518152602001898560088110151561112f57fe5b6020020151600160038110151561114257fe5b60200201518d038152506123a7565b6111db565b60008211156111da5760026001830381151561116e57fe5b0490506111d98a6040805190810160405280898560088110151561118e57fe5b602002015160006003811015156111a157fe5b6020020151815260200189856008811015156111b957fe5b602002015160016003811015156111cc57fe5b60200201518152506123a7565b5b5b6110a8565b5b50505050505050505092915050565b6111f8612ddd565b6000611202612e5d565b61120a612e5d565b6000806000806000808b600260038110151561122257fe5b6020020151141561123557899850611708565b60008a600260038110151561124657fe5b60200201511415611259578a9850611708565b7ffffffffffffffffffffffffffffffffffffffffffffffffffffffffefffffc2f97508780151561128657fe5b8b600260038110151561129557fe5b60200201518c60026003811015156112a957fe5b6020020151098760006004811015156112be57fe5b602002018181525050878015156112d157fe5b8760006004811015156112e057fe5b60200201518c60026003811015156112f457fe5b60200201510987600160048110151561130957fe5b6020020181815250508780151561131c57fe5b8a600260038110151561132b57fe5b60200201518b600260038110151561133f57fe5b60200201510987600260048110151561135457fe5b6020020181815250508780151561136757fe5b87600260048110151561137657fe5b60200201518b600260038110151561138a57fe5b60200201510987600360048110151561139f57fe5b602002018181525050608060405190810160405280898015156113be57fe5b8960026004811015156113cd57fe5b60200201518e60006003811015156113e157fe5b6020020151098152602001898015156113f657fe5b89600360048110151561140557fe5b60200201518e600160038110151561141957fe5b60200201510981526020018980151561142e57fe5b89600060048110151561143d57fe5b60200201518d600060038110151561145157fe5b60200201510981526020018980151561146657fe5b89600160048110151561147557fe5b60200201518d600160038110151561148957fe5b60200201510981525095508560026004811015156114a357fe5b60200201518660006004811015156114b757fe5b60200201511415611506578560036004811015156114d157fe5b60200201518660016004811015156114e557fe5b60200201511415156114f657611708565b6114ff8b611a37565b9850611708565b8780151561151057fe5b86600060048110151561151f57fe5b6020020151890387600260048110151561153557fe5b60200201510894508780151561154757fe5b86600160048110151561155657fe5b6020020151890387600360048110151561156c57fe5b60200201510893508780151561157e57fe5b85860992508780151561158d57fe5b85840991508780151561159c57fe5b828903898015156115a957fe5b868709089050878015156115b957fe5b888015156115c357fe5b898015156115cd57fe5b858960006004811015156115dd57fe5b602002015109600209890382089050808960006003811015156115fc57fe5b6020020181815250508780151561160f57fe5b8880151561161957fe5b828a038a80151561162657fe5b868a600060048110151561163657fe5b60200201510908850989600160038110151561164e57fe5b6020020181815250508780151561166157fe5b8880151561166b57fe5b8388600160048110151561167b57fe5b60200201510989038a600160038110151561169257fe5b6020020151088960016003811015156116a757fe5b602002018181525050878015156116ba57fe5b888015156116c457fe5b8b60026003811015156116d357fe5b60200201518d60026003811015156116e757fe5b60200201510986098960026003811015156116fe57fe5b6020020181815250505b505050505050505092915050565b60008061173684600260038110151561172b57fe5b6020020151846120b1565b91508280151561174257fe5b82830990508280151561175157fe5b8185600060038110151561176157fe5b60200201510984600060038110151561177657fe5b6020020181815250508280151561178957fe5b8380151561179357fe5b8284098560016003811015156117a557fe5b6020020151098460016003811015156117ba57fe5b60200201818152505060018460026003811015156117d457fe5b60200201818152505050505050565b60008060006117f0612ddd565b60006117fa612da2565b876000111561180c5760009550611a2c565b600287101561181e5760009550611a2c565b868881151561182957fe5b069750600088141561183e5760009550611a2c565b600287141561184f57879550611a2c565b6118598888612888565b94507fffffffffffffffffffffffffffffffffffffffffffffffffffffffffffffffff85141561188c5760009550611a2c565b600360048881151561189a57fe5b0614156118c2576118bb88600460018a018115156118b457fe5b048961069a565b9550611a2c565b60056008888115156118d057fe5b061415611965576118f188600460018a038115156118ea57fe5b048961069a565b9350600184141561191d5761191688600860038a0181151561190f57fe5b048961069a565b9550611a2c565b6001870384141561195c578661194689600402600860058b0381151561193f57fe5b048a61069a565b896002020281151561195457fe5b069550611a2c565b60009550611a2c565b600291505b86821015611a27577fffffffffffffffffffffffffffffffffffffffffffffffffffffffffffffffff6119a4896004028485020389612888565b1415611a1a57606060405190810160405280898152602001836000038152602001600181525092506119fd6040805190810160405280600081526020016001815250600260018a018115156119f557fe5b04858a6129d3565b9050806000600281101515611a0e57fe5b60200201519550611a2c565b818060010192505061196a565b600095505b505050505092915050565b611a3f612ddd565b60008060008060008060007ffffffffffffffffffffffffffffffffffffffffffffffffffffffffefffffc2f96506000896002600381101515611a7e57fe5b60200201511415611a8e57611be3565b886000600381101515611a9d57fe5b60200201519550886001600381101515611ab357fe5b6020020151945086801515611ac457fe5b858609935086801515611ad357fe5b87801515611add57fe5b858809600409925086801515611aef57fe5b87801515611af957fe5b878809600309915086801515611b0b57fe5b87801515611b1557fe5b848508880388801515611b2457fe5b84850908905080886000600381101515611b3a57fe5b60200201818152505086801515611b4d57fe5b87801515611b5757fe5b88801515611b6157fe5b868709600809880388801515611b7357fe5b89801515611b7d57fe5b848b038708850908886001600381101515611b9457fe5b60200201818152505086801515611ba757fe5b87801515611bb157fe5b8a6002600381101515611bc057fe5b60200201518709600209886002600381101515611bd957fe5b6020020181815250505b50505050505050919050565b611bf7612ddd565b6000611c01612da2565b611c09612e5d565b6000806000806000808b6002600381101515611c2157fe5b60200201511415611c76576060604051908101604052808b6000600281101515611c4757fe5b602002015181526020018b6001600281101515611c6057fe5b60200201518152602001600181525098506120a3565b60008a6001600281101515611c8757fe5b60200201511415611c9a578a98506120a3565b7ffffffffffffffffffffffffffffffffffffffffffffffffffffffffefffffc2f975087801515611cc757fe5b8b6002600381101515611cd657fe5b60200201518c6002600381101515611cea57fe5b602002015109876000600281101515611cff57fe5b60200201818152505087801515611d1257fe5b876000600281101515611d2157fe5b60200201518c6002600381101515611d3557fe5b602002015109876001600281101515611d4a57fe5b6020020181815250506080604051908101604052808c6000600381101515611d6e57fe5b602002015181526020018c6001600381101515611d8757fe5b6020020151815260200189801515611d9b57fe5b896000600281101515611daa57fe5b60200201518d6000600281101515611dbe57fe5b602002015109815260200189801515611dd357fe5b896001600281101515611de257fe5b60200201518d6001600281101515611df657fe5b6020020151098152509550856002600481101515611e1057fe5b6020020151866000600481101515611e2457fe5b60200201511415611ec057856003600481101515611e3e57fe5b6020020151866001600481101515611e5257fe5b6020020151141515611eb15760008b6000600381101515611e6f57fe5b60200201818152505060008b6001600381101515611e8957fe5b60200201818152505060008b6002600381101515611ea357fe5b6020020181815250506120a3565b611eba8b611a37565b506120a3565b87801515611eca57fe5b866000600481101515611ed957fe5b60200201518903876002600481101515611eef57fe5b602002015108945087801515611f0157fe5b866001600481101515611f1057fe5b60200201518903876003600481101515611f2657fe5b602002015108935087801515611f3857fe5b858609925087801515611f4757fe5b858409915087801515611f5657fe5b82890389801515611f6357fe5b86870908905087801515611f7357fe5b88801515611f7d57fe5b89801515611f8757fe5b85896000600481101515611f9757fe5b60200201510960020989038208905080896000600381101515611fb657fe5b60200201818152505087801515611fc957fe5b88801515611fd357fe5b828a038a801515611fe057fe5b868a6000600481101515611ff057fe5b60200201510908850989600160038110151561200857fe5b6020020181815250508780151561201b57fe5b8880151561202557fe5b8388600160048110151561203557fe5b60200201510989038a600160038110151561204c57fe5b60200201510889600160038110151561206157fe5b6020020181815250508780151561207457fe5b8b600260038110151561208357fe5b6020020151860989600260038110151561209957fe5b6020020181815250505b505050505050505092915050565b60008060008060008060008814806120c857508688145b806120d35750600087145b156120dd57600080fd5b868811156120f45786888115156120f057fe5b0697505b600193508692508791505b60008214151561213857818381151561211457fe5b049050838482028603838484028603809550819650829750839850505050506120ff565b600085121561214e578460000387039550612152565b8495505b505050505092915050565b8080151561216757fe5b8285600060038110151561217757fe5b60200201510984600060038110151561218c57fe5b6020020181815250508080151561219f57fe5b818015156121a957fe5b8385098560016003811015156121bb57fe5b6020020151098460016003811015156121d057fe5b60200201818152505060018460026003811015156121ea57fe5b60200201818152505050505050565b60008060008060008060007ffffffffffffffffffffffffffffffffffffffffffffffffffffffffefffffc2f9650600088600260038110151561223857fe5b602002015114156122485761239d565b87600060038110151561225757fe5b6020020151955087600160038110151561226d57fe5b602002015194508680151561227e57fe5b85860993508680151561228d57fe5b8780151561229757fe5b8588096004099250868015156122a957fe5b878015156122b357fe5b8788096003099150868015156122c557fe5b878015156122cf57fe5b8485088803888015156122de57fe5b848509089050808860006003811015156122f457fe5b6020020181815250508680151561230757fe5b8780151561231157fe5b8880151561231b57fe5b86870960080988038880151561232d57fe5b8980151561233757fe5b848b03870885090888600160038110151561234e57fe5b6020020181815250508680151561236157fe5b8780151561236b57fe5b89600260038110151561237a57fe5b6020020151870960020988600260038110151561239357fe5b6020020181815250505b5050505050505050565b60006123b1612da2565b6123b9612e5d565b6000806000806000808a60016003811015156123d157fe5b60200201511415612453578860006002811015156123eb57fe5b60200201518a60006003811015156123ff57fe5b60200201818152505088600160028110151561241757fe5b60200201518a600160038110151561242b57fe5b60200201818152505060018a600260038110151561244557fe5b60200201818152505061287c565b600089600160028110151561246457fe5b602002015114156124745761287c565b7ffffffffffffffffffffffffffffffffffffffffffffffffffffffffefffffc2f9750878015156124a157fe5b8a60026003811015156124b057fe5b60200201518b60026003811015156124c457fe5b6020020151098760006002811015156124d957fe5b602002018181525050878015156124ec57fe5b8760006002811015156124fb57fe5b60200201518b600260038110151561250f57fe5b60200201510987600160028110151561252457fe5b6020020181815250506080604051908101604052808b600060038110151561254857fe5b602002015181526020018b600160038110151561256157fe5b602002015181526020018980151561257557fe5b89600060028110151561258457fe5b60200201518c600060028110151561259857fe5b6020020151098152602001898015156125ad57fe5b8960016002811015156125bc57fe5b60200201518c60016002811015156125d057fe5b60200201510981525095508560026004811015156125ea57fe5b60200201518660006004811015156125fe57fe5b602002015114156126995785600360048110151561261857fe5b602002015186600160048110151561262c57fe5b602002015114151561268b5760008a600060038110151561264957fe5b60200201818152505060008a600160038110151561266357fe5b60200201818152505060008a600260038110151561267d57fe5b60200201818152505061287c565b6126948a6121f9565b61287c565b878015156126a357fe5b8660006004811015156126b257fe5b602002015189038760026004811015156126c857fe5b6020020151089450878015156126da57fe5b8660016004811015156126e957fe5b602002015189038760036004811015156126ff57fe5b60200201510893508780151561271157fe5b85860992508780151561272057fe5b85840991508780151561272f57fe5b8289038980151561273c57fe5b8687090890508780151561274c57fe5b8880151561275657fe5b8980151561276057fe5b8589600060048110151561277057fe5b602002015109600209890382089050808a600060038110151561278f57fe5b602002018181525050878015156127a257fe5b888015156127ac57fe5b828a038a8015156127b957fe5b868a60006004811015156127c957fe5b6020020151090885098a60016003811015156127e157fe5b602002018181525050878015156127f457fe5b888015156127fe57fe5b8388600160048110151561280e57fe5b60200201510989038b600160038110151561282557fe5b6020020151088a600160038110151561283a57fe5b6020020181815250508780151561284d57fe5b8a600260038110151561285c57fe5b602002015186098a600260038110151561287257fe5b6020020181815250505b50505050505050505050565b600080600080848681151561289957fe5b06955060008614156128ae57600093506129ca565b60018614156128c057600193506129ca565b859250600091505b60006002848115156128d657fe5b0614156128f7576002838115156128e957fe5b0492506001820191506128c8565b60009050600060028381151561290957fe5b0614806129225750600160088681151561291f57fe5b06145b806129395750600760088681151561293657fe5b06145b15612947576001905061296b565b7fffffffffffffffffffffffffffffffffffffffffffffffffffffffffffffffff90505b600183141561297c578093506129ca565b600360048681151561298a57fe5b061480156129a4575060036004848115156129a157fe5b06145b156129b0578060000390505b6129c583868115156129be57fe5b0684612888565b810293505b50505092915050565b6129db612da2565b6129e3612da2565b600083861115612a0b5760408051908101604052806000815260200160008152509250612b6e565b6000861415612a325760408051908101604052806001815260200160018152509250612b6e565b866000600281101515612a4157fe5b6020020151826000600281101515612a5557fe5b602002018181525050866001600281101515612a6d57fe5b6020020151826001600281101515612a8157fe5b6020020181815250508590506001600282811515612a9b57fe5b061415612aff57816000600281101515612ab157fe5b6020020151836000600281101515612ac557fe5b602002018181525050816001600281101515612add57fe5b6020020151836001600281101515612af157fe5b602002018181525050612b1d565b60408051908101604052806001815260200160008152509250612b6e565b5b6001811115612b6d57600281811515612b3357fe5b049050612b4282838787612b78565b91506001600282811515612b5257fe5b061415612b6857612b6582848787612b78565b92505b612b1e565b5b5050949350505050565b612b80612da2565b612b88612ddd565b600080606060405190810160405280600081526020016000815260200160008152509250600091505b6002821015612c4357600090505b6002811015612c3657848782600281101515612bd757fe5b60200201518984600281101515612bea57fe5b602002015185848601600381101515612bff57fe5b60200201510101811515612c0f57fe5b0683828301600381101515612c2057fe5b6020020181815250508080600101915050612bbf565b8180600101925050612bb1565b612c4e838787612c5b565b9350505050949350505050565b612c63612da2565b6000846002600381101515612c7457fe5b6020020151141515612d9b5781836001600381101515612c9057fe5b6020020151856002600381101515612ca457fe5b602002015102856001600381101515612cb957fe5b602002015103811515612cc857fe5b06846001600381101515612cd857fe5b60200201818152505081836000600381101515612cf157fe5b6020020151856002600381101515612d0557fe5b602002015102856000600381101515612d1a57fe5b602002015103811515612d2957fe5b06846000600381101515612d3957fe5b602002018181525050836000600381101515612d5157fe5b6020020151816000600281101515612d6557fe5b602002018181525050836001600381101515612d7d57fe5b6020020151816001600281101515612d9157fe5b6020020181815250505b9392505050565b60408051908101604052806002905b6000815260200190600190039081612db15790505090565b602060405190810160405280600081525090565b6060604051908101604052806003905b6000815260200190600190039081612ded5790505090565b610300604051908101604052806008905b612e1e612e85565b815260200190600190039081612e165790505090565b610200604051908101604052806010905b6000815260200190600190039081612e455790505090565b6080604051908101604052806004905b6000815260200190600190039081612e6d5790505090565b6060604051908101604052806003905b6000815260200190600190039081612e9557905050905600a165627a7a72305820b9b8b64680c16dd4f317ed59513add0cf4638e37b6d823e39059dcecbb57c42f0029",
  "source": "pragma solidity ^0.4.10;\r\n\r\nimport \"./Secp256k1.sol\";\r\n\r\nlibrary LinkableRingSignature {\r\n\r\n    // Modulus for public keys\r\n    uint constant pp = 0xFFFFFFFFFFFFFFFFFFFFFFFFFFFFFFFFFFFFFFFFFFFFFFFFFFFFFFFEFFFFFC2F;\r\n\r\n    // Base point (generator) G\r\n    uint constant Gx = 0x79BE667EF9DCBBAC55A06295CE870B07029BFCDB2DCE28D959F2815B16F81798;\r\n    uint constant Gy = 0x483ADA7726A3C4655DA4FBFC0E1108A8FD17B448A68554199C47D08FFB10D4B8;\r\n\r\n    // Consider killing this function.\r\n    function mapToCurve(uint256 r) internal constant returns (uint256[3] memory rG) {\r\n        uint[2] memory G;\r\n        G[0] = Gx;\r\n        G[1] = Gy;\r\n\r\n        rG  = Secp256k1._mul(r, G);\r\n        ECCMath.toZ1(rG, pp);\r\n    }\r\n\r\n    // All the fancy modular stuff was re-written from a python library\r\n    // https://github.com/warner/python-ecdsa/blob/master/src/ecdsa/numbertheory.py\r\n    function jacobi(uint256 a, uint256 n) internal constant returns (int256) {\r\n        \r\n        a = a % n;\r\n\r\n        if(a == 0){\r\n            return 0;\r\n        }\r\n\r\n        if(a == 1){\r\n            return 1;\r\n        }\r\n        uint256 a1 = a; \r\n        uint256 e = 0;\r\n\r\n        while (a1 % 2 == 0){\r\n            a1 = a1 / 2;\r\n            e = e + 1;\r\n        }\r\n        int256 s = 0;\r\n\r\n        if(e % 2 == 0 || n % 8 == 1 || n % 8 == 7){\r\n            s = 1;\r\n        }\r\n        else{\r\n            s = -1;\r\n        }\r\n        if(a1 == 1){\r\n            return s;\r\n        }\r\n        if(n % 4 == 3 && a1 % 4 == 3){\r\n            s = -s;\r\n        }\r\n        return int256(s) * jacobi(n % a1, a1);\r\n        \r\n    }\r\n\r\n    function helper(uint256 at, uint256 dt, uint256 m, uint256 p, uint256 s, uint i) returns (bool) {\r\n        return ECCMath.expmod(at * ECCMath.expmod(dt, m, p), ECCMath.expmod(2, s-1-i, p), p) == p - 1;\r\n    } \r\n\r\n    function mod_sqrt(uint256 a, uint256 p) internal constant returns (uint256) {\r\n        if(0 > a) {\r\n            return 0;\r\n        }\r\n        if( p < 2 ){\r\n            return 0;\r\n        }\r\n\r\n        a = a % p;\r\n\r\n        if(a == 0) {\r\n            return 0;\r\n        }\r\n        if(p == 2) {\r\n            return a;\r\n        }\r\n\r\n        int256 jac = jacobi(a, p);\r\n\r\n        if(jac == -1) {\r\n            return 0;\r\n        }\r\n\r\n        if(p % 4 == 3) {\r\n            return ECCMath.expmod(a, (p+1)/4, p);\r\n        }\r\n\r\n        if(p % 8 == 5) {\r\n            uint256 d = ECCMath.expmod(a, (p - 1)/4, p);\r\n            if(d == 1) {\r\n                return ECCMath.expmod(a, (p + 3)/8, p);\r\n            }\r\n            if(d == p - 1) {\r\n                return (2 * a * ECCMath.expmod(4 * a, (p - 5)/8, p)) % p;\r\n            }\r\n            return 0;\r\n        }\r\n\r\n        uint256[3] memory f;\r\n\r\n        for(uint256 b = 2; b < p ; b++) {\r\n            if(jacobi(b * b - 4 * a, p) == -1) {\r\n                f = [a, -b, 1];\r\n                uint256[2] memory ff = polynomial_exp_mod([uint256(0), uint256(1)], (p + 1) / 2, f, p);\r\n                //assert ff[1] == 0 ?\r\n                return ff[0];\r\n            }\r\n        }\r\n\r\n        return 0;\r\n    }\r\n\r\n    function polynomial_exp_mod(uint256[2] base, uint256 exponent, uint256[3] polymod, uint256 p) internal constant returns (uint256[2] memory s) {\r\n        if( exponent > p) {\r\n            return [uint256(0), uint256(0)];\r\n        }\r\n\r\n        if(exponent == 0) {\r\n            return [uint256(1), uint256(1)];\r\n        }\r\n\r\n        uint256[2] memory G;\r\n        G[0] = base[0];\r\n        G[1] = base[1];\r\n        uint256 k = exponent;\r\n\r\n        if(k % 2 == 1) {\r\n            s[0] = G[0];\r\n            s[1] = G[1];\r\n        }\r\n        else {\r\n            return [uint256(1), uint256(0)];\r\n        }\r\n\r\n        while( k > 1) {\r\n            k = k / 2;\r\n            G = polynomial_multiply_mod(G, G, polymod, p);\r\n            if( k % 2 == 1) {\r\n                s = polynomial_multiply_mod(G, s, polymod, p);\r\n            }\r\n        }\r\n    }\r\n\r\n    function polynomial_multiply_mod(uint256[2] m1, uint256[2] m2, uint256[3] polymod, uint256 p) internal constant returns(uint256[2]) {\r\n        uint256[3] memory prod = [uint256(0), uint256(0), uint256(0)];\r\n\r\n        for(uint i = 0; i < 2; i++) {\r\n            for(uint j = 0; j < 2; j++) {\r\n                prod[j + j] = (prod[i + j] + m1[i] + m2[j]) % p;\r\n            }\r\n        }\r\n\r\n        return polynomial_reduce_mod(prod, polymod, p);\r\n    }\r\n\r\n\r\n    function polynomial_reduce_mod(uint256[3] poly, uint256[3] polymod, uint256 p) internal constant returns(uint256[2] memory res) {\r\n\r\n        if( poly[2] != 0) {\r\n\r\n            poly[1] = ( poly[1] - poly[2] * polymod[1]) % p;\r\n            poly[0] = ( poly[0] - poly[2] * polymod[0]) % p;\r\n\r\n            res[0] = poly[0];\r\n            res[1] = poly[1];\r\n        }        \r\n    }\r\n\r\n    function mapToCurveReal(uint256 x) internal constant returns (uint256[2]) {\r\n        x -= 1;\r\n        uint256 y = 0;\r\n        bool found = false;\r\n        uint256 runs = 0;\r\n\r\n        while(!found) {\r\n            x += 1;\r\n            uint256 f_x = (mulmod(mulmod(x, x, pp), x, pp) + 7) % pp;\r\n            y = mod_sqrt(f_x, pp);\r\n            \r\n            if( y != 0) {\r\n                if(  mulmod(y, y, pp) - (f_x)  % pp  == 0) {\r\n                    found = true;\r\n                }\r\n            }\r\n             \r\n            runs += 1;\r\n\r\n            if(runs > 100){\r\n                break;\r\n            }\r\n        }\r\n\r\n        uint256[2] memory Q;\r\n        Q[0] = x;\r\n        Q[1] = y;\r\n        \r\n        return Q;\r\n    }\r\n\r\n    function h2(uint256[] y) internal constant  returns (uint256[2] memory Q) {\r\n        uint256[2] memory T = mapToCurveReal(hashToInt(y));\r\n        Q[0] = T[0];\r\n        Q[1] = T[1];\r\n    }   \r\n\r\n    function h1(uint256[] y, uint256[2] link, uint256 message, uint256[2] z_1, uint256[2] z_2) internal constant returns (uint256) {\r\n        return uint256(sha3(y, link, message, z_1, z_2));\r\n    }\r\n\r\n    function hashToInt(uint256[] y) internal constant  returns (uint256){\r\n        return uint256(sha3(y)) ;\r\n    }\r\n\r\n    function multiplyAddPoints(uint256 a, uint256[2] b, uint256 c, uint256[2] d) internal constant returns (uint256[2]) {\r\n        uint256[3] memory T = Secp256k1._add(Secp256k1._mul(a, b), Secp256k1._mul(c, d));\r\n        ECCMath.toZ1(T, pp);\r\n        uint256[2] memory Q;\r\n        Q[0] = T[0];\r\n        Q[1] = T[1];\r\n        return Q;\r\n    }\r\n\r\n    function verifyRingSignature(uint256 message, uint256[] y, uint256 c_0, uint256[] s, uint256[2] link) constant returns (bool) {      \r\n    \r\n        uint[2] memory G;\r\n        G[0] = Gx;\r\n        G[1] = Gy;\r\n\r\n        uint256[] memory c = new uint256[](y.length/2);\r\n        \r\n        c[0] = c_0;\r\n\r\n        uint[2] memory H = h2(y);\r\n\r\n        for(uint i = 0; i < y.length/2; i++) {\r\n\r\n            uint[2] memory Y;\r\n            Y[0] = y[i * 2];\r\n            Y[1] = y[(i * 2) + 1];\r\n\r\n            uint256[2] memory z_1 = multiplyAddPoints(s[i], G, c[i], Y);\r\n\r\n            uint256[2] memory z_2 = multiplyAddPoints(s[i], H, c[i], link);\r\n\r\n            if (i < (y.length/2) - 1) {\r\n                c[i + 1] = h1(y, link, message, z_1, z_2);\r\n            }\r\n            else {\r\n                return c_0 == h1(y, link, message, z_1, z_2);\r\n            }\r\n        }\r\n\r\n        return false;\r\n    }\r\n}",
  "sourcePath": "D:\\GL4\\sem2\\PPP\\front\\evoting-blockchain\\contracts\\LinkableRingSignature.sol",
  "compiler": {
    "name": "solc",
    "version": "0.4.21+commit.dfe3193c.Emscripten.clang"
  },
  "schemaVersion": "2.0.0",
  "updatedAt": "2018-05-11T23:56:42.203Z"
}