{
  "contractName": "owned",
  "abi": [
    {
      "constant": true,
      "inputs": [],
      "name": "owner",
      "outputs": [
        {
          "name": "",
          "type": "address"
        }
      ],
      "payable": false,
      "stateMutability": "view",
      "type": "function"
    },
    {
      "inputs": [],
      "payable": false,
      "stateMutability": "nonpayable",
      "type": "constructor"
    },
    {
      "constant": false,
      "inputs": [
        {
          "name": "newOwner",
          "type": "address"
        }
      ],
      "name": "transferOwnership",
      "outputs": [],
      "payable": false,
      "stateMutability": "nonpayable",
      "type": "function"
    }
  ],
  "bytecode": "0x6060604052341561000f57600080fd5b336000806101000a81548173ffffffffffffffffffffffffffffffffffffffff021916908373ffffffffffffffffffffffffffffffffffffffff1602179055506101ce8061005e6000396000f30060606040526004361061004c576000357c0100000000000000000000000000000000000000000000000000000000900463ffffffff1680638da5cb5b14610051578063f2fde38b146100a6575b600080fd5b341561005c57600080fd5b6100646100df565b604051808273ffffffffffffffffffffffffffffffffffffffff1673ffffffffffffffffffffffffffffffffffffffff16815260200191505060405180910390f35b34156100b157600080fd5b6100dd600480803573ffffffffffffffffffffffffffffffffffffffff16906020019091905050610104565b005b6000809054906101000a900473ffffffffffffffffffffffffffffffffffffffff1681565b3373ffffffffffffffffffffffffffffffffffffffff166000809054906101000a900473ffffffffffffffffffffffffffffffffffffffff1673ffffffffffffffffffffffffffffffffffffffff1614151561015f57600080fd5b806000806101000a81548173ffffffffffffffffffffffffffffffffffffffff021916908373ffffffffffffffffffffffffffffffffffffffff160217905550505600a165627a7a72305820f9ffb72311d0a1d020085c61cc7721beebfef543e712888ff334fe80b6dc1b9d0029",
  "source": "pragma solidity ^0.4.10;\r\n\r\ncontract owned {\r\n    address public owner;\r\n\r\n    /* Initialise contract creator as owner */\r\n    function owned() {\r\n        owner = msg.sender;\r\n    }\r\n\r\n    /* Function to dictate that only the designated owner can call a function */\r\n    modifier onlyOwner {\r\n        if(owner != msg.sender) throw;\r\n        _;\r\n    }\r\n\r\n    /* Transfer ownership of this contract to someone else */\r\n    function transferOwnership(address newOwner) onlyOwner() {\r\n        owner = newOwner;\r\n    }\r\n\r\n\r\n    /*function kill() onlyOwner() {\r\n        selfdestruct(owner);\r\n    }*/\r\n}",
  "sourcePath": "D:\\GL4\\sem2\\PPP\\front\\evoting-blockchain\\contracts\\owned.sol",
  "compiler": {
    "name": "solc",
    "version": "0.4.21+commit.dfe3193c.Emscripten.clang"
  },
  "schemaVersion": "2.0.0",
  "updatedAt": "2018-05-11T23:56:42.081Z"
}