{
  "contractName": "Voting",
  "abi": [
    {
      "constant": true,
      "inputs": [
        {
          "name": "",
          "type": "bytes32"
        }
      ],
      "name": "registeredKeys",
      "outputs": [
        {
          "name": "",
          "type": "bool"
        }
      ],
      "payable": false,
      "stateMutability": "view",
      "type": "function"
    },
    {
      "constant": true,
      "inputs": [
        {
          "name": "",
          "type": "bytes32"
        }
      ],
      "name": "electionResults",
      "outputs": [
        {
          "name": "",
          "type": "uint256"
        }
      ],
      "payable": false,
      "stateMutability": "view",
      "type": "function"
    },
    {
      "constant": true,
      "inputs": [
        {
          "name": "",
          "type": "uint256"
        }
      ],
      "name": "candidates",
      "outputs": [
        {
          "name": "",
          "type": "bytes32"
        }
      ],
      "payable": false,
      "stateMutability": "view",
      "type": "function"
    },
    {
      "constant": true,
      "inputs": [
        {
          "name": "",
          "type": "uint256"
        }
      ],
      "name": "hashedVotes",
      "outputs": [
        {
          "name": "",
          "type": "uint256"
        }
      ],
      "payable": false,
      "stateMutability": "view",
      "type": "function"
    },
    {
      "constant": true,
      "inputs": [],
      "name": "debug",
      "outputs": [
        {
          "name": "",
          "type": "bool"
        }
      ],
      "payable": false,
      "stateMutability": "view",
      "type": "function"
    },
    {
      "constant": true,
      "inputs": [
        {
          "name": "",
          "type": "bytes32"
        }
      ],
      "name": "candidatesMap",
      "outputs": [
        {
          "name": "",
          "type": "bool"
        }
      ],
      "payable": false,
      "stateMutability": "view",
      "type": "function"
    },
    {
      "constant": true,
      "inputs": [
        {
          "name": "",
          "type": "uint256"
        }
      ],
      "name": "votes",
      "outputs": [
        {
          "name": "",
          "type": "bytes32"
        }
      ],
      "payable": false,
      "stateMutability": "view",
      "type": "function"
    },
    {
      "constant": true,
      "inputs": [],
      "name": "electionName",
      "outputs": [
        {
          "name": "",
          "type": "string"
        }
      ],
      "payable": false,
      "stateMutability": "view",
      "type": "function"
    },
    {
      "constant": true,
      "inputs": [],
      "name": "owner",
      "outputs": [
        {
          "name": "",
          "type": "address"
        }
      ],
      "payable": false,
      "stateMutability": "view",
      "type": "function"
    },
    {
      "constant": true,
      "inputs": [],
      "name": "numberOfVoters",
      "outputs": [
        {
          "name": "",
          "type": "uint256"
        }
      ],
      "payable": false,
      "stateMutability": "view",
      "type": "function"
    },
    {
      "constant": true,
      "inputs": [],
      "name": "numberOfCandidates",
      "outputs": [
        {
          "name": "",
          "type": "uint256"
        }
      ],
      "payable": false,
      "stateMutability": "view",
      "type": "function"
    },
    {
      "constant": true,
      "inputs": [],
      "name": "state",
      "outputs": [
        {
          "name": "",
          "type": "uint8"
        }
      ],
      "payable": false,
      "stateMutability": "view",
      "type": "function"
    },
    {
      "constant": true,
      "inputs": [
        {
          "name": "",
          "type": "bytes32"
        }
      ],
      "name": "registeredVoteLink",
      "outputs": [
        {
          "name": "",
          "type": "bool"
        }
      ],
      "payable": false,
      "stateMutability": "view",
      "type": "function"
    },
    {
      "constant": true,
      "inputs": [
        {
          "name": "",
          "type": "uint256"
        }
      ],
      "name": "ring",
      "outputs": [
        {
          "name": "",
          "type": "uint256"
        }
      ],
      "payable": false,
      "stateMutability": "view",
      "type": "function"
    },
    {
      "constant": false,
      "inputs": [
        {
          "name": "newOwner",
          "type": "address"
        }
      ],
      "name": "transferOwnership",
      "outputs": [],
      "payable": false,
      "stateMutability": "nonpayable",
      "type": "function"
    },
    {
      "constant": true,
      "inputs": [],
      "name": "ringHash",
      "outputs": [
        {
          "name": "",
          "type": "uint256"
        }
      ],
      "payable": false,
      "stateMutability": "view",
      "type": "function"
    },
    {
      "constant": true,
      "inputs": [
        {
          "name": "",
          "type": "uint256"
        },
        {
          "name": "",
          "type": "uint256"
        }
      ],
      "name": "voters",
      "outputs": [
        {
          "name": "",
          "type": "uint256"
        }
      ],
      "payable": false,
      "stateMutability": "view",
      "type": "function"
    },
    {
      "inputs": [],
      "payable": false,
      "stateMutability": "nonpayable",
      "type": "constructor"
    },
    {
      "constant": false,
      "inputs": [],
      "name": "setDebug",
      "outputs": [],
      "payable": false,
      "stateMutability": "nonpayable",
      "type": "function"
    },
    {
      "constant": false,
      "inputs": [
        {
          "name": "_electionName",
          "type": "string"
        },
        {
          "name": "_numberOfVoters",
          "type": "uint256"
        },
        {
          "name": "_numberOfCandidates",
          "type": "uint256"
        },
        {
          "name": "_candidates",
          "type": "bytes32[]"
        }
      ],
      "name": "finishSetUp",
      "outputs": [
        {
          "name": "",
          "type": "bool"
        }
      ],
      "payable": false,
      "stateMutability": "nonpayable",
      "type": "function"
    },
    {
      "constant": false,
      "inputs": [
        {
          "name": "publicKey",
          "type": "uint256[2]"
        }
      ],
      "name": "registerVoter",
      "outputs": [
        {
          "name": "",
          "type": "bool"
        }
      ],
      "payable": false,
      "stateMutability": "nonpayable",
      "type": "function"
    },
    {
      "constant": false,
      "inputs": [],
      "name": "endRegistrationPhase",
      "outputs": [
        {
          "name": "",
          "type": "bool"
        }
      ],
      "payable": false,
      "stateMutability": "nonpayable",
      "type": "function"
    },
    {
      "constant": false,
      "inputs": [],
      "name": "endVotingPhase",
      "outputs": [
        {
          "name": "",
          "type": "bool"
        }
      ],
      "payable": false,
      "stateMutability": "nonpayable",
      "type": "function"
    },
    {
      "constant": false,
      "inputs": [
        {
          "name": "b",
          "type": "bytes"
        }
      ],
      "name": "bytesToBytes32",
      "outputs": [
        {
          "name": "",
          "type": "bytes32"
        }
      ],
      "payable": false,
      "stateMutability": "nonpayable",
      "type": "function"
    },
    {
      "constant": false,
      "inputs": [
        {
          "name": "hashedVote",
          "type": "uint256"
        },
        {
          "name": "vote",
          "type": "bytes"
        },
        {
          "name": "pubKeys",
          "type": "uint256[]"
        },
        {
          "name": "c_0",
          "type": "uint256"
        },
        {
          "name": "signature",
          "type": "uint256[]"
        },
        {
          "name": "link",
          "type": "uint256[2]"
        }
      ],
      "name": "castVote",
      "outputs": [
        {
          "name": "",
          "type": "bool"
        },
        {
          "name": "",
          "type": "uint256"
        }
      ],
      "payable": false,
      "stateMutability": "nonpayable",
      "type": "function"
    },
    {
      "constant": true,
      "inputs": [],
      "name": "tallyElection",
      "outputs": [],
      "payable": false,
      "stateMutability": "view",
      "type": "function"
    },
    {
      "constant": true,
      "inputs": [
        {
          "name": "candidate",
          "type": "bytes32"
        }
      ],
      "name": "getCandidateCount",
      "outputs": [
        {
          "name": "",
          "type": "uint256"
        }
      ],
      "payable": false,
      "stateMutability": "view",
      "type": "function"
    },
    {
      "constant": true,
      "inputs": [],
      "name": "getCandidates",
      "outputs": [
        {
          "name": "",
          "type": "bytes32[]"
        }
      ],
      "payable": false,
      "stateMutability": "view",
      "type": "function"
    },
    {
      "constant": true,
      "inputs": [
        {
          "name": "ringIdx",
          "type": "uint256"
        }
      ],
      "name": "getRingSize",
      "outputs": [
        {
          "name": "",
          "type": "uint256"
        }
      ],
      "payable": false,
      "stateMutability": "view",
      "type": "function"
    },
    {
      "constant": true,
      "inputs": [],
      "name": "getNumberCastedVotes",
      "outputs": [
        {
          "name": "",
          "type": "uint256"
        }
      ],
      "payable": false,
      "stateMutability": "view",
      "type": "function"
    },
    {
      "constant": true,
      "inputs": [],
      "name": "getNumRegisterVoters",
      "outputs": [
        {
          "name": "",
          "type": "uint256"
        }
      ],
      "payable": false,
      "stateMutability": "view",
      "type": "function"
    }
  ],
  "bytecode": "0x60606040526001600a60006101000a81548160ff021916908315150217905550341561002a57600080fd5b336000806101000a81548173ffffffffffffffffffffffffffffffffffffffff021916908373ffffffffffffffffffffffffffffffffffffffff16021790555060008060146101000a81548160ff0219169083600481111561008857fe5b0217905550611e038061009c6000396000f300606060405260043610610180576000357c0100000000000000000000000000000000000000000000000000000000900463ffffffff16806306a49fce146101855780631e85f051146101ef57806332aaaae11461022e5780633477ee2e146102695780634e18ea02146102a8578063538f458c146103e2578063588ee29b146104195780635d71662f146104465780635df81330146104855780637686a84a146104c45780637d8db478146104ed5780637e19bddc1461051657806385e8e7a7146105dd5780638da5cb5b1461066b5780639bcc3361146106c05780639c84bb27146106e9578063a300e22414610712578063a8aa1de41461073f578063b21a64da14610776578063b84ad68f146107a3578063bf89e5ee146107de578063bfe370d91461083c578063c19d93fb146108b5578063c7535391146108ec578063c774d4e91461092b578063d7bb808714610940578063ec73ae4614610955578063f2fde38b1461098c578063f35e7581146109c5578063fba00cbd146109ee575b600080fd5b341561019057600080fd5b610198610a2e565b6040518080602001828103825283818151815260200191508051906020019060200280838360005b838110156101db5780820151818401526020810190506101c0565b505050509050019250505060405180910390f35b34156101fa57600080fd5b610214600480803560001916906020019091905050610a90565b604051808215151515815260200191505060405180910390f35b341561023957600080fd5b610253600480803560001916906020019091905050610ab0565b6040518082815260200191505060405180910390f35b341561027457600080fd5b61028a6004808035906020019091905050610ac8565b60405180826000191660001916815260200191505060405180910390f35b34156102b357600080fd5b6103c1600480803590602001909190803590602001908201803590602001908080601f0160208091040260200160405190810160405280939291908181526020018383808284378201915050505050509190803590602001908201803590602001908080602002602001604051908101604052809392919081815260200183836020028082843782019150505050505091908035906020019091908035906020019082018035906020019080806020026020016040519081016040528093929190818152602001838360200280828437820191505050505050919080604001906002806020026040519081016040528092919082600260200280828437820191505050505091905050610aec565b60405180831515151581526020018281526020019250505060405180910390f35b34156103ed57600080fd5b6104036004808035906020019091905050610ea4565b6040518082815260200191505060405180910390f35b341561042457600080fd5b61042c610ec8565b604051808215151515815260200191505060405180910390f35b341561045157600080fd5b61046b600480803560001916906020019091905050610edb565b604051808215151515815260200191505060405180910390f35b341561049057600080fd5b6104a66004808035906020019091905050610efb565b60405180826000191660001916815260200191505060405180910390f35b34156104cf57600080fd5b6104d7610f1f565b6040518082815260200191505060405180910390f35b34156104f857600080fd5b610500610f2c565b6040518082815260200191505060405180910390f35b341561052157600080fd5b6105c3600480803590602001908201803590602001908080601f0160208091040260200160405190810160405280939291908181526020018383808284378201915050505050509190803590602001909190803590602001909190803590602001908201803590602001908080602002602001604051908101604052809392919081815260200183836020028082843782019150505050505091905050610f39565b604051808215151515815260200191505060405180910390f35b34156105e857600080fd5b6105f06110c6565b6040518080602001828103825283818151815260200191508051906020019080838360005b83811015610630578082015181840152602081019050610615565b50505050905090810190601f16801561065d5780820380516001836020036101000a031916815260200191505b509250505060405180910390f35b341561067657600080fd5b61067e611164565b604051808273ffffffffffffffffffffffffffffffffffffffff1673ffffffffffffffffffffffffffffffffffffffff16815260200191505060405180910390f35b34156106cb57600080fd5b6106d3611189565b6040518082815260200191505060405180910390f35b34156106f457600080fd5b6106fc61118f565b6040518082815260200191505060405180910390f35b341561071d57600080fd5b610725611195565b604051808215151515815260200191505060405180910390f35b341561074a57600080fd5b6107606004808035906020019091905050611253565b6040518082815260200191505060405180910390f35b341561078157600080fd5b610789611262565b604051808215151515815260200191505060405180910390f35b34156107ae57600080fd5b6107c86004808035600019169060200190919050506113a4565b6040518082815260200191505060405180910390f35b34156107e957600080fd5b610822600480806040019060028060200260405190810160405280929190826002602002808284378201915050505050919050506113ff565b604051808215151515815260200191505060405180910390f35b341561084757600080fd5b610897600480803590602001908201803590602001908080601f0160208091040260200160405190810160405280939291908181526020018383808284378201915050505050509190505061168b565b60405180826000191660001916815260200191505060405180910390f35b34156108c057600080fd5b6108c861169e565b604051808260048111156108d857fe5b60ff16815260200191505060405180910390f35b34156108f757600080fd5b6109116004808035600019169060200190919050506116b1565b604051808215151515815260200191505060405180910390f35b341561093657600080fd5b61093e6116d1565b005b341561094b57600080fd5b61095361184a565b005b341561096057600080fd5b61097660048080359060200190919050506118f8565b6040518082815260200191505060405180910390f35b341561099757600080fd5b6109c3600480803573ffffffffffffffffffffffffffffffffffffffff1690602001909190505061191c565b005b34156109d057600080fd5b6109d86119ba565b6040518082815260200191505060405180910390f35b34156109f957600080fd5b610a1860048080359060200190919080359060200190919050506119c0565b6040518082815260200191505060405180910390f35b610a36611ba2565b6004805480602002602001604051908101604052809291908181526020018280548015610a8657602002820191906000526020600020905b81546000191681526020019060010190808311610a6e575b5050505050905090565b60096020528060005260406000206000915054906101000a900460ff1681565b600e6020528060005260406000206000915090505481565b600481815481101515610ad757fe5b90600052602060002090016000915090505481565b6000806000806002806004811115610b0057fe5b600060149054906101000a900460ff166004811115610b1b57fe5b141515610b2757600080fd5b856040518082600260200280838360005b83811015610b53578082015181840152602081019050610b38565b5050505090500191505060405180910390209250600b6000846000191660001916815260200190815260200160002060009054906101000a900460ff1615610ba45760008080905094509450610e96565b6000151560056000610bb58d61168b565b6000191660001916815260200190815260200160002060009054906101000a900460ff1615151415610bf1576000600180905094509450610e96565b610bfa896119f6565b915081600754141515610c17576000600280905094509450610e96565b896040518082805190602001908083835b602083101515610c4d5780518252602082019150602081019050602083039250610c28565b6001836020036101000a0380198251168184511680821785525050505050509050019150506040518091039020600190048b141515610c96576000600580905094509450610e96565b73__LinkableRingSignature_________________633a1f9a308c8b8b8b8b6040518663ffffffff167c010000000000000000000000000000000000000000000000000000000002815260040180868152602001806020018581526020018060200184600260200280838360005b83811015610d1f578082015181840152602081019050610d04565b50505050905001838103835287818151815260200191508051906020019060200280838360005b83811015610d61578082015181840152602081019050610d46565b50505050905001838103825285818151815260200191508051906020019060200280838360005b83811015610da3578082015181840152602081019050610d88565b5050505090500197505050505050505060206040518083038186803b1515610dca57600080fd5b5af41515610dd757600080fd5b5050506040518051905015610e8a57600d8054806001018281610dfa9190611bb6565b916000526020600020900160008d90919091505550600c8054806001018281610e239190611be2565b91600052602060002090016000610e398d61168b565b909190915090600019169055506001600b6000856000191660001916815260200190815260200160002060006101000a81548160ff0219169083151502179055506001600380905094509450610e96565b60006004809050945094505b505050965096945050505050565b600d81815481101515610eb357fe5b90600052602060002090016000915090505481565b600a60009054906101000a900460ff1681565b60056020528060005260406000206000915054906101000a900460ff1681565b600c81815481101515610f0a57fe5b90600052602060002090016000915090505481565b6000600c80549050905090565b6000600880549050905090565b6000806000806004811115610f4a57fe5b600060149054906101000a900460ff166004811115610f6557fe5b141515610f7157600080fd5b3373ffffffffffffffffffffffffffffffffffffffff166000809054906101000a900473ffffffffffffffffffffffffffffffffffffffff1673ffffffffffffffffffffffffffffffffffffffff16141515610fcc57600080fd5b6002851015610fde57600092506110bc565b6002861015610ff057600092506110bc565b8660019080519060200190611006929190611c0e565b508460038190555085600281905550836004908051906020019061102b929190611c8e565b50600091505b60035482101561109357600160056000868581518110151561104f57fe5b906020019060200201516000191660001916815260200190815260200160002060006101000a81548160ff0219169083151502179055508180600101925050611031565b6001600060146101000a81548160ff021916908360048111156110b257fe5b0217905550600192505b5050949350505050565b60018054600181600116156101000203166002900480601f01602080910402602001604051908101604052809291908181526020018280546001816001161561010002031660029004801561115c5780601f106111315761010080835404028352916020019161115c565b820191906000526020600020905b81548152906001019060200180831161113f57829003601f168201915b505050505081565b6000809054906101000a900473ffffffffffffffffffffffffffffffffffffffff1681565b60025481565b60035481565b600060028060048111156111a557fe5b600060149054906101000a900460ff1660048111156111c057fe5b1415156111cc57600080fd5b3373ffffffffffffffffffffffffffffffffffffffff166000809054906101000a900473ffffffffffffffffffffffffffffffffffffffff1673ffffffffffffffffffffffffffffffffffffffff1614151561122757600080fd5b6003600060146101000a81548160ff0219169083600481111561124657fe5b0217905550600191505090565b60006006805490509050919050565b6000600180600481111561127257fe5b600060149054906101000a900460ff16600481111561128d57fe5b14151561129957600080fd5b3373ffffffffffffffffffffffffffffffffffffffff166000809054906101000a900473ffffffffffffffffffffffffffffffffffffffff1673ffffffffffffffffffffffffffffffffffffffff161415156112f457600080fd5b600254600260068054905081151561130857fe5b04141561139b57611368600680548060200260200160405190810160405280929190818152602001828054801561135e57602002820191906000526020600020905b81548152602001906001019080831161134a575b50505050506119f6565b6007819055506002600060146101000a81548160ff0219169083600481111561138d57fe5b0217905550600191506113a0565b600091505b5090565b600060048060048111156113b457fe5b600060149054906101000a900460ff1660048111156113cf57fe5b1415156113db57600080fd5b600e6000846000191660001916815260200190815260200160002054915050919050565b6000600180600481111561140f57fe5b600060149054906101000a900460ff16600481111561142a57fe5b14151561143657600080fd5b3373ffffffffffffffffffffffffffffffffffffffff166000809054906101000a900473ffffffffffffffffffffffffffffffffffffffff1673ffffffffffffffffffffffffffffffffffffffff1614151561149157600080fd5b6000151561149e84611a46565b151514156114af5760009150611685565b60096000846040518082600260200280838360005b838110156114df5780820151818401526020810190506114c4565b5050505090500191505060405180910390206000191660001916815260200190815260200160002060009054906101000a900460ff16156115235760009150611685565b600680548060010182816115379190611bb6565b9160005260206000209001600085600060028110151561155357fe5b602002015190919091505550600680548060010182816115739190611bb6565b9160005260206000209001600085600160028110151561158f57fe5b602002015190919091505550600880548060010182816115af9190611ce1565b9160005260206000209060020201600060408051908101604052808760006002811015156115d957fe5b602002015181526020018760016002811015156115f257fe5b6020020151815250909190915090600261160d929190611d13565b5050600160096000856040518082600260200280838360005b83811015611641578082015181840152602081019050611626565b5050505090500191505060405180910390206000191660001916815260200190815260200160002060006101000a81548160ff021916908315150217905550600191505b50919050565b6000806020830151905080915050919050565b600060149054906101000a900460ff1681565b600b6020528060005260406000206000915054906101000a900460ff1681565b60008060038060048111156116e257fe5b600060149054906101000a900460ff1660048111156116fd57fe5b14151561170957600080fd5b3373ffffffffffffffffffffffffffffffffffffffff166000809054906101000a900473ffffffffffffffffffffffffffffffffffffffff1673ffffffffffffffffffffffffffffffffffffffff1614151561176457600080fd5b600092505b6004805490508310156117be576000600e600060048681548110151561178b57fe5b90600052602060002090015460001916600019168152602001908152602001600020819055508280600101935050611769565b600091505b600c80549050821015611821576001600e6000600c858154811015156117e557fe5b906000526020600020900154600019166000191681526020019081526020016000206000828254019250508190555081806001019250506117c3565b6004600060146101000a81548160ff0219169083600481111561184057fe5b0217905550505050565b600080600481111561185857fe5b600060149054906101000a900460ff16600481111561187357fe5b14151561187f57600080fd5b3373ffffffffffffffffffffffffffffffffffffffff166000809054906101000a900473ffffffffffffffffffffffffffffffffffffffff1673ffffffffffffffffffffffffffffffffffffffff161415156118da57600080fd5b6001600a60006101000a81548160ff02191690831515021790555050565b60068181548110151561190757fe5b90600052602060002090016000915090505481565b3373ffffffffffffffffffffffffffffffffffffffff166000809054906101000a900473ffffffffffffffffffffffffffffffffffffffff1673ffffffffffffffffffffffffffffffffffffffff1614151561197757600080fd5b806000806101000a81548173ffffffffffffffffffffffffffffffffffffffff021916908373ffffffffffffffffffffffffffffffffffffffff16021790555050565b60075481565b6008828154811015156119cf57fe5b9060005260206000209060020201816002811015156119ea57fe5b01600091509150505481565b60008160405180828051906020019060200280838360005b83811015611a29578082015181840152602081019050611a0e565b505050509050019150506040518091039020600190049050919050565b6000611a5182611a58565b9050919050565b6000806000807ffffffffffffffffffffffffffffffffffffffffffffffffffffffffefffffc2f9250846000600281101515611a9057fe5b602002015160001480611ab5575082856000600281101515611aae57fe5b6020020151145b80611ad35750846001600281101515611aca57fe5b60200201516000145b80611af0575082856001600281101515611ae957fe5b6020020151145b15611afe5760009350611b9a565b82801515611b0857fe5b856001600281101515611b1757fe5b6020020151866001600281101515611b2b57fe5b602002015109915082801515611b3d57fe5b600784801515611b4957fe5b876000600281101515611b5857fe5b602002015186801515611b6757fe5b896000600281101515611b7657fe5b60200201518a6000600281101515611b8a57fe5b6020020151090908905080821493505b505050919050565b602060405190810160405280600081525090565b815481835581811511611bdd57818360005260206000209182019101611bdc9190611d53565b5b505050565b815481835581811511611c0957818360005260206000209182019101611c089190611d78565b5b505050565b828054600181600116156101000203166002900490600052602060002090601f016020900481019282601f10611c4f57805160ff1916838001178555611c7d565b82800160010185558215611c7d579182015b82811115611c7c578251825591602001919060010190611c61565b5b509050611c8a9190611d53565b5090565b828054828255906000526020600020908101928215611cd0579160200282015b82811115611ccf578251829060001916905591602001919060010190611cae565b5b509050611cdd9190611d78565b5090565b815481835581811511611d0e57600202816002028360005260206000209182019101611d0d9190611d9d565b5b505050565b8260028101928215611d42579160200282015b82811115611d41578251825591602001919060010190611d26565b5b509050611d4f9190611d53565b5090565b611d7591905b80821115611d71576000816000905550600101611d59565b5090565b90565b611d9a91905b80821115611d96576000816000905550600101611d7e565b5090565b90565b611dc691905b80821115611dc25760008181611db99190611dc9565b50600201611da3565b5090565b90565b5060008155600101600090555600a165627a7a7230582062e84564df250898a80c0499bb239dbab62380dedce40e057a4cc0a7e075fbed0029",
  "source": "pragma solidity ^0.4.21;\r\n\r\nimport \"./Secp256k1.sol\";\r\nimport \"./LinkableRingSignature.sol\";\r\nimport \"./owned.sol\";\r\n\r\ncontract Voting is owned {\r\n\r\n    enum State { SETUP, REGISTRATION, VOTING, READY_TO_TALLY, END_TALLY }\r\n    State public state;\r\n\r\n    modifier inState(State s) {\r\n        if(state != s) {\r\n            throw;\r\n        }\r\n        _;\r\n    } \r\n\r\n\r\n    /****************************************\r\n                    SETUP DATA\r\n    /****************************************/\r\n    string public electionName;\r\n    //uint public votingStartTime;\r\n    //uint public votingEndTime;\r\n    uint public numberOfVoters;\r\n    uint public numberOfCandidates;\r\n    bytes32[] public candidates;\r\n    mapping(bytes32 => bool) public candidatesMap;\r\n\r\n    /****************************************\r\n                END SETUP DATA\r\n    /****************************************/\r\n\r\n\r\n    /****************************************\r\n                REGISTRATION DATA\r\n    /****************************************/\r\n    uint256[] public ring;\r\n    uint256 public ringHash;\r\n    uint256[2][] public voters; //voters publickeys [X,Y]\r\n    mapping(bytes32 => bool) public registeredKeys;\r\n    /****************************************\r\n             END REGISTRATION DATA\r\n    /****************************************/\r\n\r\n    bool public debug = true;\r\n    /****************************************\r\n                    VOTE DATA\r\n    /****************************************/\r\n    mapping(bytes32 => bool) public registeredVoteLink; //to verify if voter has already voted\r\n    bytes32[] public votes;\r\n    uint256[] public hashedVotes;\r\n    /****************************************\r\n                  END VOTE DATA\r\n    /****************************************/\r\n    \r\n    mapping(bytes32 => uint256) public electionResults; \r\n    /************************************** */\r\n    \r\n    function Voting() {\r\n            state = State.SETUP;\r\n        }\r\n\r\n    // @dev Sets a contract to debug mode so election times can be ignored.\r\n    // Can only be called by owner.\r\n    function setDebug() inState(State.SETUP) onlyOwner() {\r\n        debug = true;\r\n    }\r\n\r\n    function finishSetUp(   string _electionName,\r\n                           // uint  _votingStartTime,\r\n                            // uint  _votingEndTime,\r\n                            uint  _numberOfVoters,\r\n                            uint  _numberOfCandidates,\r\n                            bytes32[] _candidates\r\n                            //,uint256[2][] _publicKeys\r\n\r\n                            \r\n                        ) inState(State.SETUP) onlyOwner() returns (bool) {\r\n\r\n      \r\n\r\n        /* if(_registrationStartTime < block.timestamp) {\r\n            return false;\r\n        }\r\n\r\n\r\n        if(Secp256k1.isPubKey(_thresholdKey) == false) {\r\n            return false;\r\n        } \r\n        */\r\n\r\n\r\n        if(_numberOfCandidates < 2) {\r\n            return false;\r\n        }\r\n        \r\n        if(_numberOfVoters < 2) {\r\n            return false;\r\n        }\r\n        \r\n        \r\n        electionName = _electionName;\r\n        numberOfCandidates = _numberOfCandidates;\r\n        numberOfVoters = _numberOfVoters;\r\n       // votingStartTime = _votingStartTime;\r\n        // votingEndTime = _votingEndTime;\r\n        //state = State.VOTING;\r\n        candidates = _candidates;\r\n        for (uint i=0;i<numberOfCandidates;i++) {\r\n            candidatesMap[_candidates[i]] = true;\r\n        }\r\n\r\n        state = State.REGISTRATION;\r\n        return true;\r\n    }\r\n\r\n\r\n    function registerVoter(uint256[2] publicKey) inState(State.REGISTRATION) onlyOwner returns (bool){\r\n        \r\n        // if(block.timestamp > registrationEndTime + registrationVotingGap) {\r\n        //     state = State.VOTING;\r\n        //     return false;\r\n        // }\r\n\r\n        // if(block.timestamp > registrationEndTime) {\r\n        //     return false;\r\n        // }\r\n\r\n        if(Secp256k1.isPubKey(publicKey) == false) {\r\n            return false;\r\n        }\r\n\r\n        if(registeredKeys[sha3(publicKey)]) {\r\n            return false;\r\n        }\r\n\r\n        ring.push(publicKey[0]);\r\n        ring.push(publicKey[1]);\r\n        voters.push([publicKey[0], publicKey[1]]);\r\n        registeredKeys[sha3(publicKey)] = true;\r\n        return true;\r\n    }\r\n\r\n\r\n    function endRegistrationPhase() inState(State.REGISTRATION) onlyOwner returns (bool) {\r\n\r\n        // if(!debug) {\r\n        //     if(block.timestamp < registrationEndTime) {\r\n        //         return false;\r\n        //     }  \r\n        // }\r\n          if(ring.length / 2 == numberOfVoters) {\r\n            ringHash = LinkableRingSignature.hashToInt(ring);\r\n            state = State.VOTING;\r\n            return true;\r\n        }\r\n        \r\n        else \r\n\r\n            return false;\r\n\r\n        \r\n    }\r\n\r\n            \r\n\r\n    function endVotingPhase() inState(State.VOTING) onlyOwner returns (bool) {\r\n        \r\n       // if(!debug) {\r\n         //   if(block.timestamp < votingEndTime) {\r\n           //     return false;\r\n            //}\r\n        //}\r\n\r\n        state = State.READY_TO_TALLY;\r\n\r\n        return true;\r\n    }\r\n\r\n\r\n   \r\n\r\nfunction bytesToBytes32(bytes b) returns (bytes32) {\r\n \r\n\r\n    bytes32 result;\r\nassembly {\r\n    result := mload(add(b, 32))\r\n}\r\nreturn result;\r\n    \r\n}\r\n\r\n    \r\n    function castVote(\r\n        uint256 hashedVote,\r\n        bytes vote,\r\n        uint256[] pubKeys,\r\n        uint256 c_0,\r\n        uint256[] signature,\r\n        uint256[2] link) inState(State.VOTING) returns (bool,uint){ \r\n        \r\n        bytes32 linkedH = sha3(link);\r\n        if(registeredVoteLink[linkedH]) {\r\n            return (false,0);\r\n        }\r\n        \r\n        if(candidatesMap[bytesToBytes32(vote)] == false) {\r\n            return (false,1);\r\n        }\r\n\r\n        uint256 _ringHash = LinkableRingSignature.hashToInt(pubKeys);\r\n        \r\n        if( ringHash != _ringHash) {\r\n            return (false,2);\r\n        }\r\n        \r\n       if( hashedVote != uint256(sha3(vote))) {\r\n\r\n            return (false,5);\r\n        }\r\n        \r\n        if(LinkableRingSignature.verifyRingSignature(hashedVote, pubKeys, c_0, signature, link)) {\r\n            \r\n            hashedVotes.push(hashedVote);\r\n            votes.push(bytesToBytes32(vote));\r\n            registeredVoteLink[linkedH] = true;\r\n\r\n            return (true,3);\r\n        }\r\n\r\n        return (false,4);\r\n        \r\n    }\r\n\r\n\r\n    function tallyElection() inState(State.READY_TO_TALLY) onlyOwner constant {\r\n        \r\n            //initialize\r\n        for( uint i =0; i < candidates.length; i++ ) {\r\n            electionResults[candidates[i]] = 0;}\r\n\r\n\r\n        //count votes\r\n       for( uint j = 0; j < votes.length; j++) {\r\n           electionResults[votes[j]] += 1;}\r\n\r\n                   state = State.END_TALLY;\r\n\r\n    }\r\n\r\n\r\n    function getCandidateCount(bytes32 candidate) inState(State.END_TALLY) constant returns(uint256) {\r\n            return electionResults[candidate];\r\n    }\r\n\r\n    function getCandidates() constant returns (bytes32[]){\r\n        return candidates;\r\n    }\r\n\r\n    function getRingSize(uint ringIdx) constant returns (uint) {\r\n        return ring.length;\r\n    }\r\n    \r\n\r\n    function getNumberCastedVotes() constant returns (uint) {\r\n        return votes.length;\r\n    }\r\n\r\n\r\n    function getNumRegisterVoters() constant returns (uint) {\r\n        return voters.length;\r\n    }\r\n\r\n}",
  "sourcePath": "D:\\GL4\\sem2\\PPP\\front\\evoting-blockchain\\contracts\\Voting.sol",
  "compiler": {
    "name": "solc",
    "version": "0.4.21+commit.dfe3193c.Emscripten.clang"
  },
  "schemaVersion": "2.0.0",
  "updatedAt": "2018-05-11T23:56:42.099Z"
}